{"abi":[{"type":"constructor","inputs":[{"name":"_name","type":"string","internalType":"string"},{"name":"_symbol","type":"string","internalType":"string"},{"name":"_decimals","type":"uint8","internalType":"uint8"}],"stateMutability":"nonpayable"},{"type":"function","name":"allowance","inputs":[{"name":"","type":"address","internalType":"address"},{"name":"","type":"address","internalType":"address"}],"outputs":[{"name":"","type":"uint256","internalType":"uint256"}],"stateMutability":"view"},{"type":"function","name":"approve","inputs":[{"name":"spender","type":"address","internalType":"address"},{"name":"amount","type":"uint256","internalType":"uint256"}],"outputs":[{"name":"","type":"bool","internalType":"bool"}],"stateMutability":"nonpayable"},{"type":"function","name":"balanceOf","inputs":[{"name":"","type":"address","internalType":"address"}],"outputs":[{"name":"","type":"uint256","internalType":"uint256"}],"stateMutability":"view"},{"type":"function","name":"decimals","inputs":[],"outputs":[{"name":"","type":"uint8","internalType":"uint8"}],"stateMutability":"view"},{"type":"function","name":"mint","inputs":[{"name":"to","type":"address","internalType":"address"},{"name":"amount","type":"uint256","internalType":"uint256"}],"outputs":[],"stateMutability":"nonpayable"},{"type":"function","name":"name","inputs":[],"outputs":[{"name":"","type":"string","internalType":"string"}],"stateMutability":"view"},{"type":"function","name":"symbol","inputs":[],"outputs":[{"name":"","type":"string","internalType":"string"}],"stateMutability":"view"},{"type":"function","name":"transfer","inputs":[{"name":"to","type":"address","internalType":"address"},{"name":"amount","type":"uint256","internalType":"uint256"}],"outputs":[{"name":"","type":"bool","internalType":"bool"}],"stateMutability":"nonpayable"},{"type":"function","name":"transferFrom","inputs":[{"name":"from","type":"address","internalType":"address"},{"name":"to","type":"address","internalType":"address"},{"name":"amount","type":"uint256","internalType":"uint256"}],"outputs":[{"name":"","type":"bool","internalType":"bool"}],"stateMutability":"nonpayable"},{"type":"event","name":"Approval","inputs":[{"name":"owner","type":"address","indexed":true,"internalType":"address"},{"name":"spender","type":"address","indexed":true,"internalType":"address"},{"name":"amount","type":"uint256","indexed":false,"internalType":"uint256"}],"anonymous":false},{"type":"event","name":"Transfer","inputs":[{"name":"from","type":"address","indexed":true,"internalType":"address"},{"name":"to","type":"address","indexed":true,"internalType":"address"},{"name":"amount","type":"uint256","indexed":false,"internalType":"uint256"}],"anonymous":false}],"bytecode":{"object":"0x608060405234801562000010575f80fd5b5060405162000a3f38038062000a3f83398101604081905262000033916200012b565b5f62000040848262000236565b5060016200004f838262000236565b506002805460ff191660ff9290921691909117905550620002fe9050565b634e487b7160e01b5f52604160045260245ffd5b5f82601f83011262000091575f80fd5b81516001600160401b0380821115620000ae57620000ae6200006d565b604051601f8301601f19908116603f01168101908282118183101715620000d957620000d96200006d565b81604052838152602092508683858801011115620000f5575f80fd5b5f91505b83821015620001185785820183015181830184015290820190620000f9565b5f93810190920192909252949350505050565b5f805f606084860312156200013e575f80fd5b83516001600160401b038082111562000155575f80fd5b620001638783880162000081565b9450602086015191508082111562000179575f80fd5b50620001888682870162000081565b925050604084015160ff811681146200019f575f80fd5b809150509250925092565b600181811c90821680620001bf57607f821691505b602082108103620001de57634e487b7160e01b5f52602260045260245ffd5b50919050565b601f82111562000231575f81815260208120601f850160051c810160208610156200020c5750805b601f850160051c820191505b818110156200022d5782815560010162000218565b5050505b505050565b81516001600160401b038111156200025257620002526200006d565b6200026a81620002638454620001aa565b84620001e4565b602080601f831160018114620002a0575f8415620002885750858301515b5f19600386901b1c1916600185901b1785556200022d565b5f85815260208120601f198616915b82811015620002d057888601518255948401946001909101908401620002af565b5085821015620002ee57878501515f19600388901b60f8161c191681555b5050505050600190811b01905550565b610733806200030c5f395ff3fe608060405234801561000f575f80fd5b5060043610610090575f3560e01c806340c10f191161006357806340c10f191461010757806370a082311461011c57806395d89b4114610149578063a9059cbb14610151578063dd62ed3e14610164575f80fd5b806306fdde0314610094578063095ea7b3146100b257806323b872dd146100d5578063313ce567146100e8575b5f80fd5b61009c61018e565b6040516100a99190610573565b60405180910390f35b6100c56100c03660046105d9565b610219565b60405190151581526020016100a9565b6100c56100e3366004610601565b610285565b6002546100f59060ff1681565b60405160ff90911681526020016100a9565b61011a6101153660046105d9565b610422565b005b61013b61012a36600461063a565b60036020525f908152604090205481565b6040519081526020016100a9565b61009c610492565b6100c561015f3660046105d9565b61049f565b61013b61017236600461065a565b600460209081525f928352604080842090915290825290205481565b5f805461019a9061068b565b80601f01602080910402602001604051908101604052809291908181526020018280546101c69061068b565b80156102115780601f106101e857610100808354040283529160200191610211565b820191905f5260205f20905b8154815290600101906020018083116101f457829003601f168201915b505050505081565b335f8181526004602090815260408083206001600160a01b038716808552925280832085905551919290917f8c5be1e5ebec7d5bd14f71427d1e84f3dd0314c0f7b2291e5b200ac8c7c3b925906102739086815260200190565b60405180910390a35060015b92915050565b6001600160a01b0383165f908152600460209081526040808320338452909152812054828110156102e95760405162461bcd60e51b8152602060048201526009602482015268414c4c4f57414e434560b81b60448201526064015b60405180910390fd5b6001600160a01b0385165f9081526003602052604090205483111561033a5760405162461bcd60e51b815260206004820152600760248201526642414c414e434560c81b60448201526064016102e0565b5f1981146103705761034c83826106d7565b6001600160a01b0386165f9081526004602090815260408083203384529091529020555b6001600160a01b0385165f90815260036020526040812080548592906103979084906106d7565b90915550506001600160a01b0384165f90815260036020526040812080548592906103c39084906106ea565b92505081905550836001600160a01b0316856001600160a01b03167fddf252ad1be2c89b69c2b068fc378daa952ba7f163c4a11628f55a4df523b3ef8560405161040f91815260200190565b60405180910390a3506001949350505050565b6001600160a01b0382165f90815260036020526040812080548392906104499084906106ea565b90915550506040518181526001600160a01b038316905f907fddf252ad1be2c89b69c2b068fc378daa952ba7f163c4a11628f55a4df523b3ef9060200160405180910390a35050565b6001805461019a9061068b565b335f908152600360205260408120548211156104e75760405162461bcd60e51b815260206004820152600760248201526642414c414e434560c81b60448201526064016102e0565b335f90815260036020526040812080548492906105059084906106d7565b90915550506001600160a01b0383165f90815260036020526040812080548492906105319084906106ea565b90915550506040518281526001600160a01b0384169033907fddf252ad1be2c89b69c2b068fc378daa952ba7f163c4a11628f55a4df523b3ef90602001610273565b5f6020808352835180828501525f5b8181101561059e57858101830151858201604001528201610582565b505f604082860101526040601f19601f8301168501019250505092915050565b80356001600160a01b03811681146105d4575f80fd5b919050565b5f80604083850312156105ea575f80fd5b6105f3836105be565b946020939093013593505050565b5f805f60608486031215610613575f80fd5b61061c846105be565b925061062a602085016105be565b9150604084013590509250925092565b5f6020828403121561064a575f80fd5b610653826105be565b9392505050565b5f806040838503121561066b575f80fd5b610674836105be565b9150610682602084016105be565b90509250929050565b600181811c9082168061069f57607f821691505b6020821081036106bd57634e487b7160e01b5f52602260045260245ffd5b50919050565b634e487b7160e01b5f52601160045260245ffd5b8181038181111561027f5761027f6106c3565b8082018082111561027f5761027f6106c356fea2646970667358221220032575553002cb4d7363a803f2df851c4fd2fa5418bed0ee23fd07e9d862805864736f6c63430008140033","linkReferences":{}},"methodIdentifiers":{"allowance(address,address)":"dd62ed3e","approve(address,uint256)":"095ea7b3","balanceOf(address)":"70a08231","decimals()":"313ce567","mint(address,uint256)":"40c10f19","name()":"06fdde03","symbol()":"95d89b41","transfer(address,uint256)":"a9059cbb","transferFrom(address,address,uint256)":"23b872dd"},"id":25}