{"abi":[{"type":"constructor","inputs":[{"name":"_asset","type":"address","internalType":"address"},{"name":"_manager","type":"address","internalType":"address"}],"stateMutability":"nonpayable"},{"type":"function","name":"MAX_QUEUE_SIZE","inputs":[],"outputs":[{"name":"","type":"uint256","internalType":"uint256"}],"stateMutability":"view"},{"type":"function","name":"MAX_SINGLE_WITHDRAWAL","inputs":[],"outputs":[{"name":"","type":"uint256","internalType":"uint256"}],"stateMutability":"view"},{"type":"function","name":"WITHDRAWAL_DELAY","inputs":[],"outputs":[{"name":"","type":"uint256","internalType":"uint256"}],"stateMutability":"view"},{"type":"function","name":"addProtocol","inputs":[{"name":"protocol","type":"address","internalType":"address"}],"outputs":[],"stateMutability":"nonpayable"},{"type":"function","name":"allocateToProtocol","inputs":[{"name":"protocol","type":"address","internalType":"address"},{"name":"amount","type":"uint256","internalType":"uint256"}],"outputs":[],"stateMutability":"nonpayable"},{"type":"function","name":"asset","inputs":[],"outputs":[{"name":"","type":"address","internalType":"contract IERC20"}],"stateMutability":"view"},{"type":"function","name":"balances","inputs":[{"name":"","type":"address","internalType":"address"}],"outputs":[{"name":"","type":"uint256","internalType":"uint256"}],"stateMutability":"view"},{"type":"function","name":"cancelWithdrawal","inputs":[{"name":"index","type":"uint256","internalType":"uint256"}],"outputs":[],"stateMutability":"nonpayable"},{"type":"function","name":"collectYield","inputs":[{"name":"protocols","type":"address[]","internalType":"address[]"}],"outputs":[],"stateMutability":"nonpayable"},{"type":"function","name":"deallocateFromProtocol","inputs":[{"name":"protocol","type":"address","internalType":"address"},{"name":"amount","type":"uint256","internalType":"uint256"}],"outputs":[],"stateMutability":"nonpayable"},{"type":"function","name":"deploymentTime","inputs":[],"outputs":[{"name":"","type":"uint256","internalType":"uint256"}],"stateMutability":"view"},{"type":"function","name":"deposit","inputs":[{"name":"assets","type":"uint256","internalType":"uint256"},{"name":"receiver","type":"address","internalType":"address"}],"outputs":[{"name":"shares","type":"uint256","internalType":"uint256"}],"stateMutability":"nonpayable"},{"type":"function","name":"emergencyWithdrawAll","inputs":[],"outputs":[],"stateMutability":"nonpayable"},{"type":"function","name":"getProtocols","inputs":[],"outputs":[{"name":"","type":"address[]","internalType":"address[]"}],"stateMutability":"view"},{"type":"function","name":"getQueueSize","inputs":[],"outputs":[{"name":"","type":"uint256","internalType":"uint256"}],"stateMutability":"view"},{"type":"function","name":"getUserWithdrawals","inputs":[{"name":"user","type":"address","internalType":"address"}],"outputs":[{"name":"indices","type":"uint256[]","internalType":"uint256[]"}],"stateMutability":"view"},{"type":"function","name":"getWithdrawalRequest","inputs":[{"name":"index","type":"uint256","internalType":"uint256"}],"outputs":[{"name":"owner","type":"address","internalType":"address"},{"name":"amount","type":"uint256","internalType":"uint256"},{"name":"timestamp","type":"uint256","internalType":"uint256"},{"name":"processed","type":"bool","internalType":"bool"}],"stateMutability":"view"},{"type":"function","name":"instantWithdraw","inputs":[{"name":"amount","type":"uint256","internalType":"uint256"}],"outputs":[],"stateMutability":"nonpayable"},{"type":"function","name":"isProtocol","inputs":[{"name":"","type":"address","internalType":"address"}],"outputs":[{"name":"","type":"bool","internalType":"bool"}],"stateMutability":"view"},{"type":"function","name":"isWithdrawalReady","inputs":[{"name":"index","type":"uint256","internalType":"uint256"}],"outputs":[{"name":"","type":"bool","internalType":"bool"}],"stateMutability":"view"},{"type":"function","name":"manager","inputs":[],"outputs":[{"name":"","type":"address","internalType":"address"}],"stateMutability":"view"},{"type":"function","name":"processWithdrawal","inputs":[{"name":"index","type":"uint256","internalType":"uint256"}],"outputs":[],"stateMutability":"nonpayable"},{"type":"function","name":"protocolA","inputs":[],"outputs":[{"name":"","type":"address","internalType":"address"}],"stateMutability":"view"},{"type":"function","name":"protocolB","inputs":[],"outputs":[{"name":"","type":"address","internalType":"address"}],"stateMutability":"view"},{"type":"function","name":"protocolBalance","inputs":[{"name":"","type":"address","internalType":"address"}],"outputs":[{"name":"","type":"uint256","internalType":"uint256"}],"stateMutability":"view"},{"type":"function","name":"protocolList","inputs":[{"name":"","type":"uint256","internalType":"uint256"}],"outputs":[{"name":"","type":"address","internalType":"address"}],"stateMutability":"view"},{"type":"function","name":"removeProtocol","inputs":[{"name":"protocol","type":"address","internalType":"address"}],"outputs":[],"stateMutability":"nonpayable"},{"type":"function","name":"requestWithdrawal","inputs":[{"name":"amount","type":"uint256","internalType":"uint256"}],"outputs":[{"name":"index","type":"uint256","internalType":"uint256"}],"stateMutability":"nonpayable"},{"type":"function","name":"setManager","inputs":[{"name":"newManager","type":"address","internalType":"address"}],"outputs":[],"stateMutability":"nonpayable"},{"type":"function","name":"setProtocols","inputs":[{"name":"_a","type":"address","internalType":"address"},{"name":"_b","type":"address","internalType":"address"}],"outputs":[],"stateMutability":"nonpayable"},{"type":"function","name":"totalAllocated","inputs":[],"outputs":[{"name":"","type":"uint256","internalType":"uint256"}],"stateMutability":"view"},{"type":"function","name":"totalAssets","inputs":[],"outputs":[{"name":"","type":"uint256","internalType":"uint256"}],"stateMutability":"view"},{"type":"function","name":"totalDeposits","inputs":[],"outputs":[{"name":"","type":"uint256","internalType":"uint256"}],"stateMutability":"view"},{"type":"function","name":"totalYield","inputs":[],"outputs":[{"name":"","type":"uint256","internalType":"uint256"}],"stateMutability":"view"},{"type":"function","name":"userWithdrawalIndices","inputs":[{"name":"","type":"address","internalType":"address"},{"name":"","type":"uint256","internalType":"uint256"}],"outputs":[{"name":"","type":"uint256","internalType":"uint256"}],"stateMutability":"view"},{"type":"function","name":"withdrawalQueue","inputs":[{"name":"","type":"uint256","internalType":"uint256"}],"outputs":[{"name":"owner","type":"address","internalType":"address"},{"name":"amount","type":"uint256","internalType":"uint256"},{"name":"timestamp","type":"uint256","internalType":"uint256"},{"name":"processed","type":"bool","internalType":"bool"}],"stateMutability":"view"},{"type":"event","name":"Allocated","inputs":[{"name":"protocol","type":"address","indexed":true,"internalType":"address"},{"name":"amount","type":"uint256","indexed":false,"internalType":"uint256"}],"anonymous":false},{"type":"event","name":"Deallocated","inputs":[{"name":"protocol","type":"address","indexed":true,"internalType":"address"},{"name":"amount","type":"uint256","indexed":false,"internalType":"uint256"}],"anonymous":false},{"type":"event","name":"Deposited","inputs":[{"name":"caller","type":"address","indexed":true,"internalType":"address"},{"name":"owner","type":"address","indexed":true,"internalType":"address"},{"name":"assets","type":"uint256","indexed":false,"internalType":"uint256"}],"anonymous":false},{"type":"event","name":"ProtocolSet","inputs":[{"name":"protocolA","type":"address","indexed":true,"internalType":"address"},{"name":"protocolB","type":"address","indexed":true,"internalType":"address"}],"anonymous":false},{"type":"event","name":"WithdrawalCancelled","inputs":[{"name":"owner","type":"address","indexed":true,"internalType":"address"},{"name":"amount","type":"uint256","indexed":false,"internalType":"uint256"},{"name":"index","type":"uint256","indexed":false,"internalType":"uint256"}],"anonymous":false},{"type":"event","name":"WithdrawalProcessed","inputs":[{"name":"owner","type":"address","indexed":true,"internalType":"address"},{"name":"amount","type":"uint256","indexed":false,"internalType":"uint256"},{"name":"index","type":"uint256","indexed":false,"internalType":"uint256"}],"anonymous":false},{"type":"event","name":"WithdrawalQueued","inputs":[{"name":"owner","type":"address","indexed":true,"internalType":"address"},{"name":"amount","type":"uint256","indexed":false,"internalType":"uint256"},{"name":"index","type":"uint256","indexed":false,"internalType":"uint256"}],"anonymous":false},{"type":"event","name":"Withdrawn","inputs":[{"name":"owner","type":"address","indexed":true,"internalType":"address"},{"name":"assets","type":"uint256","indexed":false,"internalType":"uint256"},{"name":"shares","type":"uint256","indexed":false,"internalType":"uint256"}],"anonymous":false},{"type":"event","name":"YieldCollected","inputs":[{"name":"protocol","type":"address","indexed":true,"internalType":"address"},{"name":"amount","type":"uint256","indexed":false,"internalType":"uint256"}],"anonymous":false},{"type":"error","name":"InsufficientBalance","inputs":[]},{"type":"error","name":"InsufficientVaultLiquidity","inputs":[]},{"type":"error","name":"InvalidProtocol","inputs":[]},{"type":"error","name":"NotInQueue","inputs":[]},{"type":"error","name":"NotManager","inputs":[]},{"type":"error","name":"NotProtocol","inputs":[]},{"type":"error","name":"ProtocolNotFound","inputs":[]},{"type":"error","name":"QueueEmpty","inputs":[]},{"type":"error","name":"QueueFull","inputs":[]},{"type":"error","name":"TransferFailed","inputs":[]},{"type":"error","name":"WithdrawalTooLarge","inputs":[]},{"type":"error","name":"ZeroAssets","inputs":[]}],"bytecode":{"object":"0x60c060405234801562000010575f80fd5b50604051620020f6380380620020f68339810160408190526200003391620000a3565b6001600160a01b0382166200005b57604051630cb65c7760e21b815260040160405180910390fd5b6001600160a01b039182166080525f80546001600160a01b031916919092161790554260a052620000d9565b80516001600160a01b03811681146200009e575f80fd5b919050565b5f8060408385031215620000b5575f80fd5b620000c08362000087565b9150620000d06020840162000087565b90509250929050565b60805160a051611fc3620001335f395f6104bf01525f818161031501528181610556015281816109df0152818161106c0152818161112501528181611438015281816114f20152818161191c0152611a070152611fc35ff3fe608060405234801561000f575f80fd5b5060043610610213575f3560e01c8063771d4c281161011f578063dd191719116100a9578063ecda10f511610079578063ecda10f5146104ba578063f434bb68146104e1578063fd92bff2146104f6578063fe0a643614610509578063ff557b2a1461051c575f80fd5b8063dd1917191461046c578063e2cfa93d14610474578063e502eb6814610487578063e8a3fbce146104a7575f80fd5b8063ae485651116100ef578063ae485651146103ec578063c822adda1461042b578063cd2689f01461043e578063ce348c6f14610451578063d0ebdbe714610459575f80fd5b8063771d4c28146103aa5780637d882097146103bd5780639ee679e8146103c6578063a809ee01146103d9575f80fd5b806332ede01e116101a057806340301a0c1161017057806340301a0c1461034a57806345f7f2491461035d578063481c6a75146103665780634bd22a1b146103785780636e553f6514610397575f80fd5b806332ede01e146102fc5780633626e2351461030857806338d52e0f146103105780633efcfda414610337575f80fd5b80630ebb172a116101e65780630ebb172a146102795780631646434f1461028357806318ff57681461029657806327e235e3146102ab5780632c86cba3146102ca575f80fd5b8063014182051461021757806301e1d1141461023357806301e9696c1461023b57806307c28c261461024e575b5f80fd5b61022060095481565b6040519081526020015b60405180910390f35b61022061052f565b610220610249366004611d55565b6105d8565b61026161025c366004611d7d565b610603565b6040516001600160a01b03909116815260200161022a565b6102206201518081565b600254610261906001600160a01b031681565b6102a96102a4366004611d94565b61062b565b005b6102206102b9366004611d94565b60076020525f908152604090205481565b6102ec6102d8366004611d94565b60036020525f908152604090205460ff1681565b604051901515815260200161022a565b61022064174876e80081565b610220606481565b6102617f000000000000000000000000000000000000000000000000000000000000000081565b6102a9610345366004611d7d565b6106cb565b6102a9610358366004611dad565b6107fb565b61022060065481565b5f54610261906001600160a01b031681565b610220610386366004611d94565b60056020525f908152604090205481565b6102206103a5366004611e1c565b61099c565b6102a96103b8366004611d94565b610afb565b61022060085481565b6102206103d4366004611d7d565b610bea565b6102a96103e7366004611d55565b610e15565b6103ff6103fa366004611d7d565b610eb9565b604080516001600160a01b0390951685526020850193909352918301521515606082015260800161022a565b6103ff610439366004611d7d565b610f58565b6102a961044c366004611d7d565b610f9d565b6102206111fb565b6102a9610467366004611d94565b61125c565b6102a96112ce565b6102a9610482366004611d55565b6113bf565b61049a610495366004611d94565b611601565b60405161022a9190611e46565b6102a96104b5366004611e89565b61166a565b6102207f000000000000000000000000000000000000000000000000000000000000000081565b6104e9611830565b60405161022a9190611eb1565b6102a9610504366004611d7d565b611890565b6102ec610517366004611d7d565b611ace565b600154610261906001600160a01b031681565b6009546006546040516370a0823160e01b81523060048201525f9291906001600160a01b037f000000000000000000000000000000000000000000000000000000000000000016906370a0823190602401602060405180830381865afa15801561059b573d5f803e3d5ffd5b505050506040513d601f19601f820116820180604052508101906105bf9190611ef1565b6105c99190611f1c565b6105d39190611f1c565b905090565b600b602052815f5260405f2081815481106105f1575f80fd5b905f5260205f20015f91509150505481565b60048181548110610612575f80fd5b5f918252602090912001546001600160a01b0316905081565b5f546001600160a01b031633146106555760405163607e454560e11b815260040160405180910390fd5b6001600160a01b0381165f9081526003602052604090205460ff1661068d5760405163924ce2f560e01b815260040160405180910390fd5b6001600160a01b0381165f908152600360209081526040808320805460ff19169055600590915290205480156106c7576106c78282611b6c565b5050565b600a5481106106ed576040516375e52f4f60e01b815260040160405180910390fd5b5f600a828154811061070157610701611f2f565b5f918252602090912060049091020180549091506001600160a01b0316331461073d5760405163607e454560e11b815260040160405180910390fd5b600381015460ff1615610763576040516338685a6b60e01b815260040160405180910390fd5b60038101805460ff19166001908117909155810154335f9081526007602052604081208054909190610796908490611f1c565b90915550506001810154600880545f906107b1908490611f1c565b90915550506001810154604080519182526020820184905233917f609802616efe88a6b73a266ced98c5dfd07c25e64549e620527605107ea30e8191015b60405180910390a25050565b5f546001600160a01b031633146108255760405163607e454560e11b815260040160405180910390fd5b5f5b81811015610997575f83838381811061084257610842611f2f565b90506020020160208101906108579190611d94565b6001600160a01b0381165f9081526003602052604090205490915060ff16610892576040516301fc71f560e21b815260040160405180910390fd5b5f8190505f6009549050816001600160a01b031663b69ef8a86040518163ffffffff1660e01b8152600401602060405180830381865afa9250505080156108f6575060408051601f3d908101601f191682019092526108f391810190611ef1565b60015b15610981576001600160a01b0384165f908152600560205260409020548082111561097e575f6109268284611f43565b90508060095f8282546109399190611f1c565b90915550506040518181526001600160a01b038716907fe542fd70a6e48b1017b003a83582b8b431ba620b546e8febe1d6c063d04d0ad69060200160405180910390a2505b50505b505050808061098f90611f56565b915050610827565b505050565b5f825f036109bd57604051630cb65c7760e21b815260040160405180910390fd5b6040516323b872dd60e01b8152336004820152306024820152604481018490527f00000000000000000000000000000000000000000000000000000000000000006001600160a01b0316906323b872dd906064016020604051808303815f875af1158015610a2d573d5f803e3d5ffd5b505050506040513d601f19601f82011682018060405250810190610a519190611f6e565b610a6e576040516312171d8360e31b815260040160405180910390fd5b6001600160a01b0382165f9081526007602052604081208054859290610a95908490611f1c565b925050819055508260085f828254610aad9190611f1c565b90915550506040518381526001600160a01b0383169033907f8752a472e571a816aea92eec8dae9baf628e840f4929fbcc2d155e6233ff68a79060200160405180910390a350815b92915050565b5f546001600160a01b03163314610b255760405163607e454560e11b815260040160405180910390fd5b6001600160a01b038116610b4c576040516301fc71f560e21b815260040160405180910390fd5b6001600160a01b0381165f9081526003602052604090205460ff1615610b85576040516301fc71f560e21b815260040160405180910390fd5b6001600160a01b03165f818152600360205260408120805460ff191660019081179091556004805491820181559091527f8a35acfbc15ff81a39ae7d344fd709f28e8600b4aa8c65c6b64bfe7fe36bd19b0180546001600160a01b0319169091179055565b5f815f03610c0b57604051630cb65c7760e21b815260040160405180910390fd5b335f90815260076020526040902054821115610c3a57604051631e9acf1760e31b815260040160405180910390fd5b64174876e800821115610c605760405163958428bf60e01b815260040160405180910390fd5b600a54606411610c8357604051638acb5f2760e01b815260040160405180910390fd5b335f9081526007602052604081208054849290610ca1908490611f43565b925050819055508160085f828254610cb99190611f43565b9091555050600a805460408051608081018252338082526020808301888152428486019081525f606086018181526001808a018b5599825295517fc65a7bb8d6351c1cf70c95a316cc6a92839c986682d98bc35f958f4883f9d2a860048a0290810180546001600160a01b0319166001600160a01b039093169290921790915592517fc65a7bb8d6351c1cf70c95a316cc6a92839c986682d98bc35f958f4883f9d2a984015590517fc65a7bb8d6351c1cf70c95a316cc6a92839c986682d98bc35f958f4883f9d2aa83015593517fc65a7bb8d6351c1cf70c95a316cc6a92839c986682d98bc35f958f4883f9d2ab909101805460ff1916911515919091179055818352600b81528383208054968701815583529182902090940183905581518681529081018390529193507fac7630200ec7f15fb2d46077b05f9a6c57c69ff10b243b36d98aaf4665bc962c910160405180910390a2919050565b5f546001600160a01b03163314610e3f5760405163607e454560e11b815260040160405180910390fd5b6001600160a01b0382165f9081526003602052604090205460ff16610e77576040516301fc71f560e21b815260040160405180910390fd5b6001600160a01b0382165f90815260056020526040902054811115610eaf57604051631e9acf1760e31b815260040160405180910390fd5b6106c78282611b6c565b5f805f80600a805490508510610ee2576040516375e52f4f60e01b815260040160405180910390fd5b5f600a8681548110610ef657610ef6611f2f565b5f9182526020918290206040805160808101825260049390930290910180546001600160a01b03168084526001820154948401859052600282015492840183905260039091015460ff1615156060909301839052999298509650945092505050565b600a8181548110610f67575f80fd5b5f91825260209091206004909102018054600182015460028301546003909301546001600160a01b039092169350919060ff1684565b600a548110610fbf576040516375e52f4f60e01b815260040160405180910390fd5b5f600a8281548110610fd357610fd3611f2f565b5f9182526020909120600490910201600381015490915060ff161561100b576040516338685a6b60e01b815260040160405180910390fd5b62015180816002015461101e9190611f1c565b42101561103e57604051635b722d6d60e01b815260040160405180910390fd5b60038101805460ff191660011790556040516370a0823160e01b81523060048201525f906001600160a01b037f000000000000000000000000000000000000000000000000000000000000000016906370a0823190602401602060405180830381865afa1580156110b1573d5f803e3d5ffd5b505050506040513d601f19601f820116820180604052508101906110d59190611ef1565b6001830154909150808210156110fd575f6110f08383611f43565b90506110fb81611c3e565b505b825460405163a9059cbb60e01b81526001600160a01b039182166004820152602481018390527f00000000000000000000000000000000000000000000000000000000000000009091169063a9059cbb906044016020604051808303815f875af115801561116d573d5f803e3d5ffd5b505050506040513d601f19601f820116820180604052508101906111919190611f6e565b6111ae576040516312171d8360e31b815260040160405180910390fd5b825460408051838152602081018790526001600160a01b03909216917fddfdc995965c1fea3bbd2158d885347ad5c250f422d97342c6a3fa680600cf68910160405180910390a250505050565b5f80805b600a5481101561125657600a818154811061121c5761121c611f2f565b5f91825260209091206003600490920201015460ff16611244578161124081611f56565b9250505b8061124e81611f56565b9150506111ff565b50919050565b5f546001600160a01b031633146112865760405163607e454560e11b815260040160405180910390fd5b6001600160a01b0381166112ad57604051630cb65c7760e21b815260040160405180910390fd5b5f80546001600160a01b0319166001600160a01b0392909216919091179055565b5f546001600160a01b031633146112f85760405163607e454560e11b815260040160405180910390fd5b5f600480548060200260200160405190810160405280929190818152602001828054801561134d57602002820191905f5260205f20905b81546001600160a01b0316815260019091019060200180831161132f575b505050505090505f5b81518110156106c7575f82828151811061137257611372611f2f565b6020908102919091018101516001600160a01b0381165f908152600590925260409091205490915080156113aa576113aa8282611b6c565b505080806113b790611f56565b915050611356565b5f546001600160a01b031633146113e95760405163607e454560e11b815260040160405180910390fd5b6001600160a01b0382165f9081526003602052604090205460ff16611421576040516301fc71f560e21b815260040160405180910390fd5b6040516370a0823160e01b81523060048201525f907f00000000000000000000000000000000000000000000000000000000000000006001600160a01b0316906370a0823190602401602060405180830381865afa158015611485573d5f803e3d5ffd5b505050506040513d601f19601f820116820180604052508101906114a99190611ef1565b9050818110156114cc57604051635b722d6d60e01b815260040160405180910390fd5b60405163a9059cbb60e01b81526001600160a01b038481166004830152602482018490527f0000000000000000000000000000000000000000000000000000000000000000169063a9059cbb906044016020604051808303815f875af1158015611538573d5f803e3d5ffd5b505050506040513d601f19601f8201168201806040525081019061155c9190611f6e565b611579576040516312171d8360e31b815260040160405180910390fd5b6001600160a01b0383165f90815260056020526040812080548492906115a0908490611f1c565b925050819055508160065f8282546115b89190611f1c565b90915550506040518281526001600160a01b038416907f472f36e28bb47edb7c69c9e2ac00a77c66b505df54e9c818ac57110b0629e8c3906020015b60405180910390a2505050565b6001600160a01b0381165f908152600b602090815260409182902080548351818402810184019094528084526060939283018282801561165e57602002820191905f5260205f20905b81548152602001906001019080831161164a575b50505050509050919050565b5f546001600160a01b031633146116945760405163607e454560e11b815260040160405180910390fd5b600180546001600160a01b038085166001600160a01b031992831681179093556002805491851691909216179055158015906116e857506001600160a01b0382165f9081526003602052604090205460ff16155b15611752576001600160a01b0382165f818152600360205260408120805460ff191660019081179091556004805491820181559091527f8a35acfbc15ff81a39ae7d344fd709f28e8600b4aa8c65c6b64bfe7fe36bd19b0180546001600160a01b03191690911790555b6001600160a01b0381161580159061178257506001600160a01b0381165f9081526003602052604090205460ff16155b156117ec576001600160a01b0381165f818152600360205260408120805460ff191660019081179091556004805491820181559091527f8a35acfbc15ff81a39ae7d344fd709f28e8600b4aa8c65c6b64bfe7fe36bd19b0180546001600160a01b03191690911790555b806001600160a01b0316826001600160a01b03167fdd53607e52fabfc035bf6eea6cce48124d9d19aa6709dceb02b7f33d2e2d65fd60405160405180910390a35050565b6060600480548060200260200160405190810160405280929190818152602001828054801561188657602002820191905f5260205f20905b81546001600160a01b03168152600190910190602001808311611868575b5050505050905090565b805f036118b057604051630cb65c7760e21b815260040160405180910390fd5b335f908152600760205260409020548111156118df57604051631e9acf1760e31b815260040160405180910390fd5b64174876e8008111156119055760405163958428bf60e01b815260040160405180910390fd5b6040516370a0823160e01b81523060048201525f907f00000000000000000000000000000000000000000000000000000000000000006001600160a01b0316906370a0823190602401602060405180830381865afa158015611969573d5f803e3d5ffd5b505050506040513d601f19601f8201168201806040525081019061198d9190611ef1565b9050818110156119b057604051635b722d6d60e01b815260040160405180910390fd5b335f90815260076020526040812080548492906119ce908490611f43565b925050819055508160085f8282546119e69190611f43565b909155505060405163a9059cbb60e01b8152336004820152602481018390527f00000000000000000000000000000000000000000000000000000000000000006001600160a01b03169063a9059cbb906044016020604051808303815f875af1158015611a55573d5f803e3d5ffd5b505050506040513d601f19601f82011682018060405250810190611a799190611f6e565b611a96576040516312171d8360e31b815260040160405180910390fd5b604080518381526020810184905233917f92ccf450a286a957af52509bc1c9939d1a6a481783e142e41e2499f0bb66ebc691016107ef565b600a545f908210611ae057505f919050565b5f600a8381548110611af457611af4611f2f565b5f91825260209182902060408051608081018252600490930290910180546001600160a01b0316835260018101549383019390935260028301549082015260039091015460ff161580156060830181905291925090611b655750620151808160400151611b619190611f1c565b4210155b9392505050565b604051632e1a7d4d60e01b81526004810182905282906001600160a01b03821690632e1a7d4d906024015f604051808303815f87803b158015611bad575f80fd5b505af1925050508015611bbe575060015b506001600160a01b0383165f9081526005602052604081208054849290611be6908490611f43565b925050819055508160065f828254611bfe9190611f43565b90915550506040518281526001600160a01b038416907fcf25af35f355434c1dce4120416a90ead032734765d0e4f0c8771cee2c911645906020016115f4565b5f8190505f6004805480602002602001604051908101604052809291908181526020018280548015611c9757602002820191905f5260205f20905b81546001600160a01b03168152600190910190602001808311611c79575b505050505090505f5b815181108015611caf57505f83115b15611d34575f828281518110611cc757611cc7611f2f565b6020908102919091018101516001600160a01b0381165f90815260059092526040909120549091508015611d1f575f858210611d035785611d05565b815b9050611d118382611b6c565b611d1b8187611f43565b9550505b50508080611d2c90611f56565b915050611ca0565b50505050565b80356001600160a01b0381168114611d50575f80fd5b919050565b5f8060408385031215611d66575f80fd5b611d6f83611d3a565b946020939093013593505050565b5f60208284031215611d8d575f80fd5b5035919050565b5f60208284031215611da4575f80fd5b611b6582611d3a565b5f8060208385031215611dbe575f80fd5b823567ffffffffffffffff80821115611dd5575f80fd5b818501915085601f830112611de8575f80fd5b813581811115611df6575f80fd5b8660208260051b8501011115611e0a575f80fd5b60209290920196919550909350505050565b5f8060408385031215611e2d575f80fd5b82359150611e3d60208401611d3a565b90509250929050565b602080825282518282018190525f9190848201906040850190845b81811015611e7d57835183529284019291840191600101611e61565b50909695505050505050565b5f8060408385031215611e9a575f80fd5b611ea383611d3a565b9150611e3d60208401611d3a565b602080825282518282018190525f9190848201906040850190845b81811015611e7d5783516001600160a01b031683529284019291840191600101611ecc565b5f60208284031215611f01575f80fd5b5051919050565b634e487b7160e01b5f52601160045260245ffd5b80820180821115610af557610af5611f08565b634e487b7160e01b5f52603260045260245ffd5b81810381811115610af557610af5611f08565b5f60018201611f6757611f67611f08565b5060010190565b5f60208284031215611f7e575f80fd5b81518015158114611b65575f80fdfea2646970667358221220f2a873d6c6436f3b537c2fdca2ca391197146adb66d667de9b9624643c56692364736f6c63430008140033","linkReferences":{}},"methodIdentifiers":{"MAX_QUEUE_SIZE()":"3626e235","MAX_SINGLE_WITHDRAWAL()":"32ede01e","WITHDRAWAL_DELAY()":"0ebb172a","addProtocol(address)":"771d4c28","allocateToProtocol(address,uint256)":"e2cfa93d","asset()":"38d52e0f","balances(address)":"27e235e3","cancelWithdrawal(uint256)":"3efcfda4","collectYield(address[])":"40301a0c","deallocateFromProtocol(address,uint256)":"a809ee01","deploymentTime()":"ecda10f5","deposit(uint256,address)":"6e553f65","emergencyWithdrawAll()":"dd191719","getProtocols()":"f434bb68","getQueueSize()":"ce348c6f","getUserWithdrawals(address)":"e502eb68","getWithdrawalRequest(uint256)":"ae485651","instantWithdraw(uint256)":"fd92bff2","isProtocol(address)":"2c86cba3","isWithdrawalReady(uint256)":"fe0a6436","manager()":"481c6a75","processWithdrawal(uint256)":"cd2689f0","protocolA()":"ff557b2a","protocolB()":"1646434f","protocolBalance(address)":"4bd22a1b","protocolList(uint256)":"07c28c26","removeProtocol(address)":"18ff5768","requestWithdrawal(uint256)":"9ee679e8","setManager(address)":"d0ebdbe7","setProtocols(address,address)":"e8a3fbce","totalAllocated()":"45f7f249","totalAssets()":"01e1d114","totalDeposits()":"7d882097","totalYield()":"01418205","userWithdrawalIndices(address,uint256)":"01e9696c","withdrawalQueue(uint256)":"c822adda"},"id":19}