{"abi":[{"type":"constructor","inputs":[{"name":"_asset","type":"address","internalType":"address"}],"stateMutability":"nonpayable"},{"type":"receive","stateMutability":"payable"},{"type":"function","name":"acceptDeposits","inputs":[],"outputs":[{"name":"","type":"bool","internalType":"bool"}],"stateMutability":"view"},{"type":"function","name":"accrue","inputs":[{"name":"bps","type":"uint256","internalType":"uint256"}],"outputs":[],"stateMutability":"nonpayable"},{"type":"function","name":"accruedYield","inputs":[],"outputs":[{"name":"","type":"uint256","internalType":"uint256"}],"stateMutability":"view"},{"type":"function","name":"allocated","inputs":[],"outputs":[{"name":"","type":"uint256","internalType":"uint256"}],"stateMutability":"view"},{"type":"function","name":"allowWithdrawals","inputs":[],"outputs":[{"name":"","type":"bool","internalType":"bool"}],"stateMutability":"view"},{"type":"function","name":"asset","inputs":[],"outputs":[{"name":"","type":"address","internalType":"contract IERC20"}],"stateMutability":"view"},{"type":"function","name":"balance","inputs":[],"outputs":[{"name":"","type":"uint256","internalType":"uint256"}],"stateMutability":"view"},{"type":"function","name":"calculateYield","inputs":[],"outputs":[{"name":"","type":"uint256","internalType":"uint256"}],"stateMutability":"view"},{"type":"function","name":"deposit","inputs":[{"name":"amount","type":"uint256","internalType":"uint256"}],"outputs":[],"stateMutability":"nonpayable"},{"type":"function","name":"getAccruedYieldBps","inputs":[],"outputs":[{"name":"","type":"uint256","internalType":"uint256"}],"stateMutability":"view"},{"type":"function","name":"resetYield","inputs":[],"outputs":[],"stateMutability":"nonpayable"},{"type":"function","name":"setAllocated","inputs":[{"name":"_allocated","type":"uint256","internalType":"uint256"}],"outputs":[],"stateMutability":"nonpayable"},{"type":"function","name":"setState","inputs":[{"name":"_acceptDeposits","type":"bool","internalType":"bool"},{"name":"_allowWithdrawals","type":"bool","internalType":"bool"}],"outputs":[],"stateMutability":"nonpayable"},{"type":"function","name":"setVault","inputs":[{"name":"_vault","type":"address","internalType":"address"}],"outputs":[],"stateMutability":"nonpayable"},{"type":"function","name":"totalValue","inputs":[],"outputs":[{"name":"","type":"uint256","internalType":"uint256"}],"stateMutability":"view"},{"type":"function","name":"vault","inputs":[],"outputs":[{"name":"","type":"address","internalType":"address"}],"stateMutability":"view"},{"type":"function","name":"withdraw","inputs":[{"name":"amount","type":"uint256","internalType":"uint256"}],"outputs":[],"stateMutability":"nonpayable"},{"type":"function","name":"yieldBps","inputs":[],"outputs":[{"name":"","type":"uint256","internalType":"uint256"}],"stateMutability":"view"},{"type":"event","name":"DepositReceived","inputs":[{"name":"amount","type":"uint256","indexed":false,"internalType":"uint256"}],"anonymous":false},{"type":"event","name":"WithdrawalProcessed","inputs":[{"name":"amount","type":"uint256","indexed":false,"internalType":"uint256"}],"anonymous":false},{"type":"event","name":"YieldAccrued","inputs":[{"name":"bps","type":"uint256","indexed":false,"internalType":"uint256"}],"anonymous":false},{"type":"error","name":"InsufficientBalance","inputs":[]},{"type":"error","name":"NotVault","inputs":[]}],"bytecode":{"object":"0x60a060405234801561000f575f80fd5b506040516108cc3803806108cc83398101604081905261002e91610054565b6001600160a01b03166080526003805461ffff60a01b191661010160a01b179055610081565b5f60208284031215610064575f80fd5b81516001600160a01b038116811461007a575f80fd5b9392505050565b6080516108256100a75f395f818161015a0152818161040701526105eb01526108255ff3fe608060405260043610610108575f3560e01c8063817fd15311610092578063b69ef8a811610062578063b69ef8a81461030f578063b6b55f2514610323578063c603f75f14610342578063d4c3eea014610357578063fbfa77cf1461036b575f80fd5b8063817fd1531461028d57806385f0f098146102bd5780639ffa03ec146102dd578063b304b2e1146102fb575f80fd5b806342bf1901116100d857806342bf1901146101bc57806367aa4aa6146101d05780636817031b1461021e578063721038df1461025a578063744f4cf61461026e575f80fd5b806321e120b3146101135780632e1a7d4d1461012a57806338d52e0f146101495780634019fb3314610199575f80fd5b3661010f57005b5f80fd5b34801561011e575f80fd5b506101285f600255565b005b348015610135575f80fd5b506101286101443660046106d3565b61038a565b348015610154575f80fd5b5061017c7f000000000000000000000000000000000000000000000000000000000000000081565b6040516001600160a01b0390911681526020015b60405180910390f35b3480156101a4575f80fd5b506101ae60015481565b604051908152602001610190565b3480156101c7575f80fd5b506101ae6104cd565b3480156101db575f80fd5b506101286101ea3660046106fa565b6003805461ffff60a01b1916600160a01b9315159390930260ff60a81b191692909217600160a81b91151591909102179055565b348015610229575f80fd5b50610128610238366004610731565b600380546001600160a01b0319166001600160a01b0392909216919091179055565b348015610265575f80fd5b506002546101ae565b348015610279575f80fd5b506101286102883660046106d3565b6104ef565b348015610298575f80fd5b506003546102ad90600160a01b900460ff1681565b6040519015158152602001610190565b3480156102c8575f80fd5b506003546102ad90600160a81b900460ff1681565b3480156102e8575f80fd5b506101286102f73660046106d3565b5f55565b348015610306575f80fd5b506101ae5f5481565b34801561031a575f80fd5b506101ae610535565b34801561032e575f80fd5b5061012861033d3660046106d3565b610567565b34801561034d575f80fd5b506101ae60025481565b348015610362575f80fd5b506101ae6106bf565b348015610376575f80fd5b5060035461017c906001600160a01b031681565b600354600160a81b900460ff166103b457604051631e9acf1760e31b815260040160405180910390fd5b805f5410156103d657604051631e9acf1760e31b815260040160405180910390fd5b805f808282546103e69190610772565b909155505060405163a9059cbb60e01b8152336004820152602481018290527f00000000000000000000000000000000000000000000000000000000000000006001600160a01b03169063a9059cbb906044016020604051808303815f875af1158015610455573d5f803e3d5ffd5b505050506040513d601f19601f82011682018060405250810190610479919061078b565b61049657604051631e9acf1760e31b815260040160405180910390fd5b6040518181527ffe58aa1cb04799cee89507f6618d46acbbc3d11551df3122cd67b9ee273ea776906020015b60405180910390a150565b5f6127106002545f546104e091906107a6565b6104ea91906107bd565b905090565b8060025f82825461050091906107dc565b90915550506040518181527f3b6bc0ba304eaa17cdca1b053baac859e721c7a775cddefc825f6286641311fc906020016104c2565b5f8060646002545f5461054891906107a6565b61055291906107bd565b9050805f5461056191906107dc565b91505090565b6003546001600160a01b0316331480159061058157503315155b1561059f576040516362df054560e01b815260040160405180910390fd5b600354600160a01b900460ff166105c9576040516362df054560e01b815260040160405180910390fd5b6040516323b872dd60e01b8152336004820152306024820152604481018290527f00000000000000000000000000000000000000000000000000000000000000006001600160a01b0316906323b872dd906064016020604051808303815f875af1158015610639573d5f803e3d5ffd5b505050506040513d601f19601f8201168201806040525081019061065d919061078b565b61067a57604051631e9acf1760e31b815260040160405180910390fd5b805f8082825461068a91906107dc565b90915550506040518181527fa1ab46d0e38f33a7b1f03853088a305927deb55c906370ff5d6d2bc732f15095906020016104c2565b5f806127106002545f5461054891906107a6565b5f602082840312156106e3575f80fd5b5035919050565b80151581146106f7575f80fd5b50565b5f806040838503121561070b575f80fd5b8235610716816106ea565b91506020830135610726816106ea565b809150509250929050565b5f60208284031215610741575f80fd5b81356001600160a01b0381168114610757575f80fd5b9392505050565b634e487b7160e01b5f52601160045260245ffd5b818103818111156107855761078561075e565b92915050565b5f6020828403121561079b575f80fd5b8151610757816106ea565b80820281158282048414176107855761078561075e565b5f826107d757634e487b7160e01b5f52601260045260245ffd5b500490565b808201808211156107855761078561075e56fea264697066735822122016ff4b66ddbc5db35e73a622d8e3391f607f7689c56b2187aba8c3e9314af92964736f6c63430008140033","linkReferences":{}},"methodIdentifiers":{"acceptDeposits()":"817fd153","accrue(uint256)":"744f4cf6","accruedYield()":"4019fb33","allocated()":"b304b2e1","allowWithdrawals()":"85f0f098","asset()":"38d52e0f","balance()":"b69ef8a8","calculateYield()":"42bf1901","deposit(uint256)":"b6b55f25","getAccruedYieldBps()":"721038df","resetYield()":"21e120b3","setAllocated(uint256)":"9ffa03ec","setState(bool,bool)":"67aa4aa6","setVault(address)":"6817031b","totalValue()":"d4c3eea0","vault()":"fbfa77cf","withdraw(uint256)":"2e1a7d4d","yieldBps()":"c603f75f"},"id":21}